{
  "contractName": "test",
  "abi": [
    {
      "inputs": [],
      "name": "recieve",
      "outputs": [],
      "stateMutability": "payable",
      "type": "function",
      "payable": true
    },
    {
      "inputs": [],
      "name": "getBalance",
      "outputs": [
        {
          "internalType": "uint256",
          "name": "",
          "type": "uint256"
        }
      ],
      "stateMutability": "view",
      "type": "function",
      "constant": true
    },
    {
      "inputs": [
        {
          "internalType": "address payable",
          "name": "_to",
          "type": "address"
        },
        {
          "internalType": "uint256",
          "name": "_amount",
          "type": "uint256"
        }
      ],
      "name": "transfer",
      "outputs": [],
      "stateMutability": "nonpayable",
      "type": "function"
    }
  ],
  "bytecode": "0x608060405234801561001057600080fd5b5061034e806100206000396000f3fe6080604052600436106100345760003560e01c806312065fe014610039578063a9059cbb14610064578063a9e10bf21461008d575b600080fd5b34801561004557600080fd5b5061004e610097565b60405161005b919061016b565b60405180910390f35b34801561007057600080fd5b5061008b60048036038101906100869190610215565b61009f565b005b610095610150565b005b600047905090565b60008273ffffffffffffffffffffffffffffffffffffffff16826040516100c590610286565b60006040518083038185875af1925050503d8060008114610102576040519150601f19603f3d011682016040523d82523d6000602084013e610107565b606091505b505090508061014b576040517f08c379a0000000000000000000000000000000000000000000000000000000008152600401610142906102f8565b60405180910390fd5b505050565b565b6000819050919050565b61016581610152565b82525050565b6000602082019050610180600083018461015c565b92915050565b600080fd5b600073ffffffffffffffffffffffffffffffffffffffff82169050919050565b60006101b68261018b565b9050919050565b6101c6816101ab565b81146101d157600080fd5b50565b6000813590506101e3816101bd565b92915050565b6101f281610152565b81146101fd57600080fd5b50565b60008135905061020f816101e9565b92915050565b6000806040838503121561022c5761022b610186565b5b600061023a858286016101d4565b925050602061024b85828601610200565b9150509250929050565b600081905092915050565b50565b6000610270600083610255565b915061027b82610260565b600082019050919050565b600061029182610263565b9150819050919050565b600082825260208201905092915050565b7f4661696c656420746f2073656e64204574686572000000000000000000000000600082015250565b60006102e260148361029b565b91506102ed826102ac565b602082019050919050565b60006020820190508181036000830152610311816102d5565b905091905056fea2646970667358221220caeb2400dd8f197e90858c199d0071a7921a9380c2787a8a4fdff30920c18e2664736f6c63430008110033",
  "immutableReferences": {},
  "source": "// SPDX-License-Identifier: MIT\npragma solidity ^0.8.17;\n\ncontract test{//wallet\n    // //address variable that is public and can have funds deposited \n    // address payable public owner;\n\n    // constructor(){\n    //     owner=payable(msg.sender);\n    // }\n\n    //will receive any eth sent to the contract\n    function recieve() external payable{}\n\n    //returns the balance\n    function getBalance() external view returns (uint){\n        return address(this).balance;\n    }\n\n    // Function to transfer Ether from this contract to address from input\n    function transfer(address payable _to, uint _amount) external{\n        // Note that \"to\" is declared as payable\n        (bool success, ) = _to.call{value: _amount}(\"\");\n        require(success, \"Failed to send Ether\");\n    }\n}\n//let contract=await test.deployed()\n//let accounts = await web3.eth.getAccounts()\n//contract.recieve.sendTransaction({from: accounts[0], value: 2000000})",
  "sourcePath": "/home/pepe/github/solidity/truffle/contracts/contract.sol",
  "compiler": {
    "name": "solc",
    "version": "0.8.17+commit.8df45f5f.Emscripten.clang"
  },
  "schemaVersion": "3.4.11",
  "updatedAt": "2023-01-12T00:09:16.564Z",
  "networkType": "ethereum",
  "devdoc": {
    "kind": "dev",
    "methods": {},
    "version": 1
  },
  "userdoc": {
    "kind": "user",
    "methods": {},
    "version": 1
  }
}