{
  "contractName": "test",
  "abi": [
    {
      "inputs": [],
      "stateMutability": "nonpayable",
      "type": "constructor"
    },
    {
      "inputs": [],
      "name": "owner",
      "outputs": [
        {
          "internalType": "address payable",
          "name": "",
          "type": "address"
        }
      ],
      "stateMutability": "view",
      "type": "function",
      "constant": true
    },
    {
      "inputs": [],
      "name": "recieve",
      "outputs": [],
      "stateMutability": "payable",
      "type": "function",
      "payable": true
    },
    {
      "inputs": [],
      "name": "getBalance",
      "outputs": [
        {
          "internalType": "uint256",
          "name": "",
          "type": "uint256"
        }
      ],
      "stateMutability": "view",
      "type": "function",
      "constant": true
    },
    {
      "inputs": [
        {
          "internalType": "address payable",
          "name": "_to",
          "type": "address"
        },
        {
          "internalType": "uint256",
          "name": "_amount",
          "type": "uint256"
        }
      ],
      "name": "transfer",
      "outputs": [],
      "stateMutability": "nonpayable",
      "type": "function"
    }
  ],
  "bytecode": "0x608060405234801561001057600080fd5b50336000806101000a81548173ffffffffffffffffffffffffffffffffffffffff021916908373ffffffffffffffffffffffffffffffffffffffff1602179055506104cc806100606000396000f3fe60806040526004361061003f5760003560e01c806312065fe0146100445780638da5cb5b1461006f578063a9059cbb1461009a578063a9e10bf2146100c3575b600080fd5b34801561005057600080fd5b506100596100cd565b6040516100669190610253565b60405180910390f35b34801561007b57600080fd5b506100846100d5565b60405161009191906102af565b60405180910390f35b3480156100a657600080fd5b506100c160048036038101906100bc9190610327565b6100f9565b005b6100cb610238565b005b600047905090565b60008054906101000a900473ffffffffffffffffffffffffffffffffffffffff1681565b60008054906101000a900473ffffffffffffffffffffffffffffffffffffffff1673ffffffffffffffffffffffffffffffffffffffff163373ffffffffffffffffffffffffffffffffffffffff1614610187576040517f08c379a000000000000000000000000000000000000000000000000000000000815260040161017e906103c4565b60405180910390fd5b60008273ffffffffffffffffffffffffffffffffffffffff16826040516101ad90610415565b60006040518083038185875af1925050503d80600081146101ea576040519150601f19603f3d011682016040523d82523d6000602084013e6101ef565b606091505b5050905080610233576040517f08c379a000000000000000000000000000000000000000000000000000000000815260040161022a90610476565b60405180910390fd5b505050565b565b6000819050919050565b61024d8161023a565b82525050565b60006020820190506102686000830184610244565b92915050565b600073ffffffffffffffffffffffffffffffffffffffff82169050919050565b60006102998261026e565b9050919050565b6102a98161028e565b82525050565b60006020820190506102c460008301846102a0565b92915050565b600080fd5b6102d88161028e565b81146102e357600080fd5b50565b6000813590506102f5816102cf565b92915050565b6103048161023a565b811461030f57600080fd5b50565b600081359050610321816102fb565b92915050565b6000806040838503121561033e5761033d6102ca565b5b600061034c858286016102e6565b925050602061035d85828601610312565b9150509250929050565b600082825260208201905092915050565b7f4e6f74204f776e65720000000000000000000000000000000000000000000000600082015250565b60006103ae600983610367565b91506103b982610378565b602082019050919050565b600060208201905081810360008301526103dd816103a1565b9050919050565b600081905092915050565b50565b60006103ff6000836103e4565b915061040a826103ef565b600082019050919050565b6000610420826103f2565b9150819050919050565b7f4661696c656420746f2073656e64204574686572000000000000000000000000600082015250565b6000610460601483610367565b915061046b8261042a565b602082019050919050565b6000602082019050818103600083015261048f81610453565b905091905056fea26469706673582212203757f5c0e4835b4e96aa1e9a7bd7067823142a2865ee0083cfba968dfc0d384464736f6c63430008110033",
  "immutableReferences": {},
  "source": "// SPDX-License-Identifier: MIT\npragma solidity ^0.8.17;\n\ncontract test{//wallet\n    //state address variable that can send eth \n    address payable public owner;\n\n    //initalizing ownership\n    constructor(){\n        owner=payable(msg.sender);\n    }\n\n    //only be able to execute modified function if conditions are met\n    modifier ownerOnly(){\n        require(msg.sender==owner, \"Not Owner\");\n        _;//execute modifier\n    }\n\n    //will receive any eth sent to the contract\n    function recieve() external payable{}\n\n    //returns the balance\n    function getBalance() external view returns (uint){\n        return address(this).balance;\n    }\n\n    // Function to transfer Ether from this contract to address from input\n    function transfer(address payable _to, uint _amount) external ownerOnly{\n        // Note that \"to\" is declared as payable\n        (bool success, ) = _to.call{value: _amount}(\"\");\n        require(success, \"Failed to send Ether\");\n    }\n}\n//npx truffle console\n//let contract=await test.deployed()\n//let accounts = await web3.eth.getAccounts()\n//contract.recieve.sendTransaction({from: accounts[0], value: 2000000})\n//await contract.transfer(accounts[1],100000)",
  "sourcePath": "/home/pepe/github/solidity/truffle/contracts/contract.sol",
  "compiler": {
    "name": "solc",
    "version": "0.8.17+commit.8df45f5f.Emscripten.clang"
  },
  "schemaVersion": "3.4.11",
  "updatedAt": "2023-01-12T00:55:37.857Z",
  "networkType": "ethereum",
  "devdoc": {
    "kind": "dev",
    "methods": {},
    "version": 1
  },
  "userdoc": {
    "kind": "user",
    "methods": {},
    "version": 1
  }
}