{
  "contractName": "test",
  "abi": [
    {
      "inputs": [],
      "stateMutability": "nonpayable",
      "type": "constructor"
    },
    {
      "inputs": [],
      "name": "recieve",
      "outputs": [],
      "stateMutability": "payable",
      "type": "function",
      "payable": true
    },
    {
      "inputs": [],
      "name": "getBalance",
      "outputs": [
        {
          "internalType": "uint256",
          "name": "",
          "type": "uint256"
        }
      ],
      "stateMutability": "view",
      "type": "function",
      "constant": true
    }
  ],
  "bytecode": "0x608060405234801561001057600080fd5b5060c98061001f6000396000f3fe60806040526004361060265760003560e01c806312065fe014602b578063a9e10bf2146051575b600080fd5b348015603657600080fd5b50603d6059565b60405160489190607a565b60405180910390f35b60576061565b005b600047905090565b565b6000819050919050565b6074816063565b82525050565b6000602082019050608d6000830184606d565b9291505056fea2646970667358221220d1ae2136f93bfe3ca85fa6bcd02f3cc406c81d602bc2e5c2adb0a41c2f187b4464736f6c63430008110033",
  "immutableReferences": {},
  "source": "// SPDX-License-Identifier: MIT\npragma solidity ^0.8.17;\n\ncontract test{//wallet\n    //address variable that is public and can have funds deposited \n    //address payable public owner;\n\n    constructor(){\n        //\n        //owner=payable(msg.sender);\n    }\n\n    //will receive any eth sent to the contract\n    function recieve() external payable {}\n\n\n    //returns the balance\n    function getBalance() external view returns (uint) {\n        return address(this).balance;\n    }\n\n    // function withdraw(uint _amount) external {\n    //     require(msg.sender == owner, \"caller is not owner\");\n    //     payable(msg.sender).transfer(_amount);\n    // }\n}\n//let accounts = await web3.eth.getAccounts()\n//contract.recieve.sendTransaction({from: accounts[0], value: 2000000});",
  "sourcePath": "/home/pepe/github/solidity/truffle/contracts/contract.sol",
  "compiler": {
    "name": "solc",
    "version": "0.8.17+commit.8df45f5f.Emscripten.clang"
  },
  "schemaVersion": "3.4.11",
  "updatedAt": "2023-01-11T22:59:47.270Z",
  "networkType": "ethereum",
  "devdoc": {
    "kind": "dev",
    "methods": {},
    "version": 1
  },
  "userdoc": {
    "kind": "user",
    "methods": {},
    "version": 1
  }
}